:100000000C942A000C94C7060C94E5060C9409077E
:100010000C9447000C9447000C9447000C94300754
:100020000C9447000C9447000C9447000C94470034
:100030000C9447000C9447000C9447000C94470024
:100040000C9447000C9447000C9447000C94470014
:100050000C94470011241FBECFE5D8E0DEBFCDBF12
:1000600010E0A8E6B0E001C01D92AD36B107E1F79F
:1000700010E0A0E6B0E0E8E4F4E102C005900D92E3
:10008000A836B107D9F70E94AC070C94220A0C9449
:100090000000EF92FF920F931F937B018C0120E0F1
:1000A00030E040E05FE40E94490388238CF0C801FF
:1000B000B70120E030E040E05FE40E94C1010E940F
:1000C000A9039B01AC01205030404040504806C07D
:1000D000C801B7010E94A9039B01AC01B901CA0183
:1000E0001F910F91FF90EF900895A0E0B0E0EBE733
:1000F000F0E00C94EB09DC012B01FA019C919230A9
:1001000008F439C1EB018881823008F433C194309E
:1001100069F4843009F02FC111969C91119789815F
:10012000981709F428C1A0E6B0E025C1843009F48D
:1001300021C18230A9F4923009F01DC19A01AD01AC
:1001400088E0EA010990AE01E90109929E0181501F
:10015000C1F7E201898111969C918923818308C1AD
:10016000923009F407C112962D903C901397EB0141
:100170008A819B811496AD90BD90CD90DC901797AD
:10018000EC80FD800E811F819101281B390BB90184
:1001900037FF04C066277727621B730B6032710537
:1001A0000CF061C0121613066CF537014801062EDB
:1001B00004C096948794779467940A94D2F721E0C8
:1001C00030E040E050E004C0220F331F441F551FB1
:1001D0006A95D2F721503040404050402E213F21B7
:1001E00040235123211531054105510521F021E01E
:1001F00030E040E050E079018A01E628F72808293C
:1002000019293CC0232BD1F1260E371E350146019A
:10021000062E04C096948794779467940A94D2F734
:1002200021E030E040E050E004C0220F331F441FC3
:10023000551F6A95D2F721503040404050402A2146
:100240003B214C215D21211531054105510521F04E
:1002500021E030E040E050E059016A01A628B728CB
:10026000C828D9280BC0821593052CF01C01AA249C
:10027000BB24650103C0EE24FF24870111969C91E5
:10028000D20111968C91981709F445C0992339F041
:10029000A80197012A193B094C095D0906C0A6016E
:1002A00095012E193F09400B510B57FD08C01182D3
:1002B0003382228224833583468357831DC081E0A5
:1002C00081833382228288279927DC01821B930B4A
:1002D000A40BB50B84839583A683B7830DC0220F2F
:1002E000331F441F551F24833583468357838281E0
:1002F000938101979383828324813581468157813D
:10030000DA01C9010197A109B1098F5F9F4FAF4F72
:10031000BF4328F30BC0918333822282EA0CFB1C7B
:100320000C1D1D1DE482F5820683178383E0808304
:10033000248135814681578157FF1AC0C901AA27F8
:1003400097FDA095BA2F81709070A070B0705695EF
:10035000479537952795822B932BA42BB52B848318
:100360009583A683B7838281938101969383828349
:10037000DF0101C0D201CD01CDB7DEB7E2E10C94BF
:10038000070AA0E2B0E0E7ECF1E00C94F70969831A
:100390007A838B839C832D833E834F835887E9E048
:1003A000EE2EF12CEC0EFD1ECE010196B7010E943F
:1003B000D2048E010F5E1F4FCE010596B8010E9438
:1003C000D2048A8991E089278A8BC701B801AE01DE
:1003D000475E5F4F0E9475000E94FD03A096E6E015
:1003E0000C94130AA0E2B0E0E8EFF1E00C94F709F6
:1003F00069837A838B839C832D833E834F835887C5
:10040000F9E0EF2EF12CEC0EFD1ECE010196B701A6
:100410000E94D2048E010F5E1F4FCE010596B801D7
:100420000E94D204C701B801AE01475E5F4F0E942F
:1004300075000E94FD03A096E6E00C94130AA0E26A
:10044000B0E0E5E2F2E00C94EB0969837A838B83F8
:100450009C832D833E834F835887CE010196BE0136
:10046000675F7F4F0E94D204CE010596BE016F5E8A
:100470007F4F0E94D2049985923088F0898982301A
:10048000C8F0943019F4823051F404C0843029F457
:10049000923081F480E690E0C6C0923049F420E0CA
:1004A0009A858A89981321E02A87CE010996BBC0D4
:1004B000823049F420E09A858A89981321E02A8BBA
:1004C000CE014196B0C02D843E844F8458886D88FB
:1004D0007E888F88988CEE24FF248701AA24BB2471
:1004E000650140E050E060E070E0E0E0F0E0C10174
:1004F00081709070892BE9F0E60CF71C081D191D1E
:100500009A01AB012A0D3B1D4C1D5D1D80E090E062
:10051000A0E0B0E0E614F7040805190520F481E036
:1005200090E0A0E0B0E0BA01A901480F591F6A1F8E
:100530007B1FAA0CBB1CCC1CDD1C97FE08C081E0F5
:1005400090E0A0E0B0E0A82AB92ACA2ADB2A3196B6
:10055000E032F10549F0660C771C881C991C569412
:10056000479437942794C3CFFA85EA892B893C892D
:100570008B859C85280F391F2E5F3F4F17C0CA01FE
:1005800081709070892B61F016950795F794E79428
:1005900080E090E0A0E0B0E8E82AF92A0A2B1B2BC3
:1005A00076956795579547952F5F3F4F77FDE7CF36
:1005B0000CC0440F551F661F771F17FD4160EE0CDE
:1005C000FF1C001F111F21503040403090E05907A0
:1005D00090E0690790E4790760F32B8F3C8FDB0193
:1005E000CA018F779070A070B07080349105A1051A
:1005F000B10561F447FD0AC0E114F10401051105DC
:1006000029F0405C5F4F6F4F7F4F40781A8EFE1786
:1006100011F081E08A8F4D8F5E8F6F8F78A383E01A
:10062000898FCE0149960E94FD03A096E2E10C94C9
:10063000070AA8E1B0E0EFE1F3E00C94F709698361
:100640007A838B839C832D833E834F83588789E0F5
:10065000E82EF12CEC0EFD1ECE010196B7010E9492
:10066000D2048E010F5E1F4FCE010596B8010E9485
:10067000D2048985823040F08989823028F0C70110
:10068000B8010E944A0501C08FEF6896E6E00C941D
:10069000130AA8E1B0E0EFE4F3E00C94F7096983F2
:1006A0007A838B839C832D833E834F83588789E095
:1006B000E82EF12CEC0EFD1ECE010196B7010E9432
:1006C000D2048E010F5E1F4FCE010596B8010E9425
:1006D000D2048985823040F08989823028F0C701B0
:1006E000B8010E944A0501C08FEF6896E6E00C94BD
:1006F000130AA8E1B0E0EFE7F3E00C94F70969838F
:100700007A838B839C832D833E834F83588789E034
:10071000E82EF12CEC0EFD1ECE010196B7010E94D1
:10072000D2048E010F5E1F4FCE010596B8010E94C4
:10073000D2048985823040F08989823028F0C7014F
:10074000B8010E944A0501C081E06896E6E00C9479
:10075000130AACE0B0E0EFEAF3E00C94FB09698324
:100760007A838B839C83CE010196BE016B5F7F4FA2
:100770000E94D2048D81823061F1823050F1843048
:1007800021F48E81882351F12EC02F81388537FDC9
:1007900020C06E812F3131051CF06623F9F023C093
:1007A0008EE190E0821B930B29853A854B855C8511
:1007B00004C056954795379527958A95D2F76623B5
:1007C000B1F050954095309521953F4F4F4F5F4F79
:1007D0000EC020E030E040E050E009C02FEF3FEFD6
:1007E0004FEF5FE704C020E030E040E050E8B9019F
:1007F000CA012C96E2E00C94170ADF92EF92FF9266
:100800000F931F93FC01E480F58006811781D1804E
:100810008081823048F480E090E0A0E1B0E0E82AF6
:10082000F92A0A2B1B2BA5C0843009F49FC0823003
:1008300021F4EE24FF24870105C0E114F104010531
:10084000110519F4E0E0F0E096C0628173819FEF3A
:10085000623879070CF05BC022E83FEF261B370BAC
:100860002A3131052CF020E030E040E050E02AC091
:10087000B801A701022E04C0769567955795479554
:100880000A94D2F781E090E0A0E0B0E004C0880FC5
:10089000991FAA1FBB1F2A95D2F70197A109B10979
:1008A0008E219F21A023B1230097A105B10521F03E
:1008B00081E090E0A0E0B0E09A01AB01282B392B59
:1008C0004A2B5B2BDA01C9018F779070A070B07052
:1008D00080349105A105B10539F427FF09C0205CDA
:1008E0003F4F4F4F5F4F04C0215C3F4F4F4F5F4F13
:1008F000E0E0F0E02030A0E03A07A0E04A07A0E402
:100900005A0710F0E1E0F0E079018A0127C0603871
:10091000710564F5FB01E158FF4FD801C7018F77DE
:100920009070A070B07080349105A105B10539F4C4
:10093000E7FE0DC080E490E0A0E0B0E004C08FE3EB
:1009400090E0A0E0B0E0E80EF91E0A1F1B1F17FFA1
:1009500005C016950795F794E794319687E01695AC
:100960000795F794E7948A95D1F705C0EE24FF2404
:100970008701EFEFF0E06E2F679566276795902F60
:100980009F77D794DD24D7948E2F8695492F462BB9
:10099000582F5D29B701CA011F910F91FF90EF9069
:1009A000DF900895FC01DB01408151812281622F9B
:1009B0006F7770E0221F2227221F9381892F880FD3
:1009C000822B282F30E0991F9927991F11969C930D
:1009D000119721153105A9F54115510561057105DD
:1009E00011F482E037C082E89FEF13969C938E93B8
:1009F00012979A01AB0167E0220F331F441F551F66
:100A00006A95D1F783E08C930DC0220F331F441FEA
:100A1000551F12968D919C911397019713969C9355
:100A20008E931297203080E0380780E0480780E4FA
:100A3000580758F314962D933D934D935C93179755
:100A400008952F3F310579F4411551056105710570
:100A500019F484E08C93089564FF03C081E08C93C3
:100A600012C01C9210C02F57304013963C932E9307
:100A7000129783E08C9387E0440F551F661F771F02
:100A80008A95D1F7706414964D935D936D937C9322
:100A9000179708951F93DC01FB019C91923008F495
:100AA00047C08081823008F443C0943051F41196DD
:100AB0001C91843099F58181682F70E0611B710968
:100AC0003FC0843021F0923031F48230B9F181811D
:100AD000882389F12DC011961C9111978230F1F075
:100AE00081811817D9F412962D913C911397828128
:100AF00093818217930794F028173907BCF0149656
:100B00008D919D910D90BC91A02D248135814681C0
:100B10005781281739074A075B0718F4112341F05A
:100B20000AC082179307A407B50740F4112319F0F0
:100B300061E070E005C06FEF7FEF02C060E070E041
:100B4000CB011F910895DF93CF93CDB7DEB7ECE4CF
:100B5000F0E011821082EFE4F0E08CE08083AEE4FC
:100B6000B0E0EEE4F0E080818D608C93EAE4F0E0A8
:100B700089E09DE391838083A9E5B0E0E9E5F0E0B9
:100B8000808180618C93AFE5B0E0EFE5F0E080819B
:100B900080688C93CF91DF910895DF93CF9300D03D
:100BA000CDB7DEB789836A83A5E3B0E0E5E3F0E083
:100BB0008081982F907F89818F70892B8C93ABE3F4
:100BC000B0E0EBE3F0E08081482F407C8A81282F61
:100BD00030E081E090E0022E02C0880F991F0A9455
:100BE000E2F7842B8C930F900F90CF91DF910895B3
:100BF000DF93CF93CDB7DEB765970FB6F894DEBF1E
:100C00000FBECDBF80916B009AE0692F0E94B8099A
:100C1000282F80916B009AE0692F0E94B809892FD4
:100C2000382F80916C009AE0692F0E94B809482FF4
:100C300080916C009AE0692F0E94B809892F582F83
:100C400080916A009AE0692F0E94B809E82F80918C
:100C50006A009AE0692F0E94B809892F288B398B86
:100C60004A8B5B8BEC8B8D8B1F8684C08F85282FE6
:100C700030E0CE014096FC01E20FF31F80816F85CA
:100C80000E94CD0580E090E0A0E0B0E48B879C87D7
:100C9000AD87BE876B857C858D859E8520E030E0A5
:100CA0004AE755E40E941F02DC01CB018F8398873D
:100CB000A987BA876F81788589859A8520E030E099
:100CC00040E85FE30E94790388232CF481E090E000
:100CD0009E838D833FC06F81788589859A8520E0CA
:100CE0003FEF4FE757E40E94190318164CF56B8548
:100CF0007C858D859E8520E030E040E251E40E94B5
:100D00001F02DC01CB01BC01CD010E944900DC01C6
:100D1000CB019E838D830FC080E991E09C838B8300
:100D20008B819C810197F1F79C838B838D819E81C0
:100D300001979E838D838D819E81009769F714C0F2
:100D40006F81788589859A850E944900DC01CB01F5
:100D50009E838D838D819E819A83898389819A81E7
:100D60000197F1F79A838983EBE3F0E010828F8596
:100D70008F5F8F878F85863008F478CF65960FB6A2
:100D8000F894DEBF0FBECDBFCF91DF9108951F92C3
:100D90000F920FB60F921124EF93FF93DF93CF932F
:100DA000CDB7DEB7ECE4F0E01182108210926B0058
:100DB00010926C0010926A00CF91DF91FF91EF9139
:100DC0000F900FBE0F901F9018951F920F920FB6A5
:100DD0000F9211248F93AF93BF93EF93FF93DF9301
:100DE000CF93CDB7DEB7AEE4B0E0EEE4F0E08081C3
:100DF000887F8C9381E080936800CF91DF91FF9191
:100E0000EF91BF91AF918F910F900FBE0F901F90F8
:100E100018951F920F920FB60F9211248F93AF93D4
:100E2000BF93EF93FF93DF93CF93CDB7DEB7EEE49D
:100E3000F0E08DE08083A2E3B0E0E2E3F0E08081C7
:100E40008E7F8C9310926800CF91DF91FF91EF918C
:100E5000BF91AF918F910F900FBE0F901F9018957B
:100E60001F920F920FB60F9211248F93AF93BF93DF
:100E7000EF93FF93DF93CF93CDB7DEB780916900F7
:100E8000882379F180916A00882329F580916C008C
:100E90008823C1F480916B00882341F4A2E3B0E081
:100EA000E2E3F0E0808181608C934AC080916B0026
:100EB000815080936B008BE380936C008BE3809375
:100EC0006A003EC080916C00815080936C008BE37F
:100ED00080936A0035C080916A00815080936A00D7
:100EE0002FC0A2E3B0E0E2E3F0E0808180618C9368
:100EF000A2E3B0E0E2E3F0E080818E7F8C9380910A
:100F00006A008F5F80936A0080916A008C33C0F022
:100F100010926A0080916C008F5F80936C008091CA
:100F20006C008C3368F010926C0080916B008F5FC6
:100F300080936B0080916B00883110F010926B00F1
:100F4000CF91DF91FF91EF91BF91AF918F910F9072
:100F50000FBE0F901F901895DF93CF9300D00F9284
:100F6000CDB7DEB7A1E3B0E0E1E3F0E080818B7FB5
:100F70008C93A2E3B0E0E2E3F0E0808184608C93A4
:100F8000A5E5B0E0E5E5F0E0808182608C93A5E521
:100F9000B0E0E5E5F0E080818E7F8C93ABE5B0E0DA
:100FA000EBE5F0E0808180648C93AFE5B0E0EFE5A5
:100FB000F0E0808180688C93A1E3B0E0E1E3F0E0B1
:100FC0008081877F8C93A5E5B0E0E5E5F0E0808146
:100FD0008C608C93ABE5B0E0EBE5F0E0808180685D
:100FE0008C93AFE5B0E0EFE5F0E0808180688C9312
:100FF000ECE4F0E011821082A2E3B0E0E2E3F0E082
:1010000080818E7F8C93A7E3B0E0E7E3F0E08081FE
:101010008B7F8C93A8E3B0E0E8E3F0E0808184600C
:101020008C93A4E5B0E0E4E5F0E080818F7B8C93C5
:10103000ABE5B0E0EBE5F0E0808180628C93A7E364
:10104000B0E0E7E3F0E080818F778C93A8E3B0E035
:10105000E8E3F0E0808180688C93A7E3B0E0E7E309
:10106000F0E080818D7F8C93A8E3B0E0E8E3F0E0CE
:10107000808182608C93A7E3B0E0E7E3F0E08081B9
:101080008E7F8C93A8E3B0E0E8E3F0E0808181609C
:101090008C93A7E3B0E0E7E3F0E080818F7E8C9350
:1010A000A8E3B0E0E8E3F0E0808180618C93A7E3FF
:1010B000B0E0E7E3F0E08081877F8C93A8E3B0E0C5
:1010C000E8E3F0E0808188608C93A7E3B0E0E7E399
:1010D000F0E080818F7B8C93A8E3B0E0E8E3F0E060
:1010E000808180648C93A7E3B0E0E7E3F0E0808147
:1010F0008F7D8C93A8E3B0E0E8E3F0E0808180622C
:101100008C93A1E3B0E0E1E3F0E0808180618C9317
:10111000A1E3B0E0E1E3F0E0808180628C93A1E3A1
:10112000B0E0E1E3F0E0808181608C93A4E3B0E083
:10113000E4E3F0E080818F608C93A5E3B0E0E5E329
:10114000F0E08081807F8C93AAE3B0E0EAE3F0E0F6
:1011500080818F638C93A2E3B0E0E2E3F0E08081D2
:1011600080618C93A2E3B0E0E2E3F0E080818F7DC8
:101170008C930E94A30578940E94F805F3C00E9406
:10118000F805E6E3F0E080818823ECF090916900B7
:1011900081E0892780936900A2E3B0E0E2E3F0E018
:1011A000908180E289278C93A2E3B0E0E2E3F0E053
:1011B00080818F7E8C9302C00E94F805E6E3F0E008
:1011C00080818823CCF7E6E3F0E08081882F90E0EF
:1011D000827090700097C1F480916B00882F90E02E
:1011E000019628E130E0B9010E94C40980936B00A8
:1011F00002C00E94F805E6E3F0E08081882F90E0CD
:10120000827090700097A9F3E6E3F0E08081882F68
:1012100090E0817090700097D9F480916B008823E2
:1012200031F080916B00982F91509B8302C087E131
:101230008B839B8190936B0002C00E94F805E6E3CC
:10124000F0E08081882F90E0817090700097A9F382
:10125000E6E3F0E08081882F90E080719070009745
:10126000C1F480916C00882F90E001962CE330E06F
:10127000B9010E94C40980936C0002C00E94F80565
:10128000E6E3F0E08081882F90E080719070009715
:10129000A9F3E6E3F0E08081882F90E088709070F9
:1012A0000097D9F480916C00882331F080916C0014
:1012B000982F91509A8302C08BE38A839A819093EE
:1012C0006C0002C00E94F805E6E3F0E08081882F00
:1012D00090E0887090700097A9F3E6E3F0E08081D9
:1012E000882F90E0807490700097C1F480916A001C
:1012F000882F90E001962CE330E0B9010E94C409E8
:1013000080936A0002C00E94F805E6E3F0E0808165
:10131000882F90E0807490700097A9F3E6E3F0E0E6
:101320008081882F90E0807290700097D9F480912E
:101330006A00882331F080916A00982F9150998338
:1013400002C08BE38983998190936A0002C00E9456
:10135000F805E6E3F0E08081882F90E080729070DD
:101360000097A9F380916800882309F008CF04CF83
:10137000991B79E004C0991F961708F0961B881FE7
:101380007A95C9F78095089597FB092E07260AD00C
:1013900077FD04D00CD006D000201AF4709561952A
:1013A0007F4F0895F6F7909581959F4F0895AA1B5A
:1013B000BB1B51E107C0AA1FBB1FA617B70710F040
:1013C000A61BB70B881F991F5A95A9F78095909572
:1013D000BC01CD0108952F923F924F925F926F9280
:1013E0007F928F929F92AF92BF92CF92DF92EF92B5
:1013F000FF920F931F93CF93DF93CDB7DEB7CA1B36
:10140000DB0B0FB6F894DEBF0FBECDBF09942A8860
:10141000398848885F846E847D848C849B84AA8408
:10142000B984C884DF80EE80FD800C811B81AA8195
:10143000B981CE0FD11D0FB6F894DEBF0FBECDBF60
:08144000ED010895F894FFCFBF
:0814480000000000000000009C
:00000001FF
